:020000040800F2
:1000000000000220B11F0008E5070008EB07000808
:10001000F1070008F7070008FD07000800000000CE
:1000200000000000000000000000000003080008BD
:1000300011080008000000001F0800082D08000833
:10004000012000080120000801200008012000080C
:1000500001200008012000080120000801200008FC
:1000600001200008012000080120000801200008EC
:1000700001200008012000080120000801200008DC
:1000800001200008012000080120000801200008CC
:1000900001200008012000080120000801200008BC
:1000A00001200008012000080120000801200008AC
:1000B000012000080120000801200008012000089C
:1000C000012000080120000801200008012000088C
:1000D000012000080120000801200008012000087C
:1000E000390800080120000801200008012000084C
:1000F000012000080120000801200008012000085C
:10010000012000080120000801200008012000084B
:10011000012000080120000801200008012000083B
:10012000012000080120000801200008012000082B
:10013000012000080000000000000000012000086D
:10014000012000080120000801200008012000080B
:1001500001200008012000080120000801200008FB
:1001600001200008012000080120000801200008EB
:100170000120000801200008012000080000000004
:100180000000000001200008000000000000000046
:10019000012000080000000000000000012000080D
:1001A0000000000000000000000000000120000826
:1001B000012000080120000801200008012000089B
:0401C0000120000812
:1001C40010B5054C237833B9044B13B10448AFF38D
:1001D40000800123237010BD0C00002000000000EB
:1001E4005C20000808B5034B1BB103490348AFF377
:1001F400008008BD00000000100000205C20000802
:1002040053B94AB9002908BF00281CBF4FF0FF3179
:100214004FF0FF3000F07AB9ADF1080C6DE904CE6F
:1002240000F006F8DDF804E0DDE9022304B07047CD
:100234002DE9F0478C460D460446089E002B51D10B
:100244008A4217466DD9B2FA82FEBEF1000F0BD076
:10025400CEF1200C01FA0EF520FA0CFC02FA0EF78E
:100264004CEA050C00FA0EF44FEA174A250CBCFBC5
:10027400FAF81FFA87F90AFB18CC45EA0C4508FB83
:1002840009F3AB420AD9ED1908F1FF3280F023815A
:10029400AB4240F22081A8F102083D44ED1AA4B219
:1002A400B5FBFAF00AFB105544EA054400FB09F9D2
:1002B400A14509D9E41900F1FF3380F00A81A14571
:1002C40040F2078102383C44A4EB090440EA0840A8
:1002D4000021002E61D024FA0EF4002334607360F0
:1002E400BDE8F0878B4207D9002E54D0002186E860
:1002F40021000846BDE8F087B3FA83F1002940F0F5
:100304008E80AB4202D3824200F2FA80841A65EBFB
:1003140003050120AC46002E3FD086E81010BDE84E
:10032400F08712B90127B7FBF2F7B7FA87FEBEF1DF
:10033400000F34D1EB1B3A0C1FFA87FC0121B3FBED
:10034400F2F8250C02FB183345EA03450CFB08F3CD
:10035400AB4207D9ED1908F1FF3002D2AB4200F2EB
:10036400D1808046ED1AA3B2B5FBF2F002FB105522
:1003740043EA05440CFB00FCA44507D9E41900F149
:10038400FF3302D2A44500F2B8801846A4EB0C0453
:1003940040EA08409DE731463046BDE8F087CEF19B
:1003A400200405FA0EF307FA0EF720FA04F83A0CC3
:1003B40025FA04F448EA0308B4FBF2F14FEA1845BD
:1003C40002FB11441FFA87FC45EA044501FB0CF3C8
:1003D400AB4200FA0EF409D9ED1901F1FF3080F0B7
:1003E4008A80AB4240F2878002393D44EB1A1FFAFF
:1003F40088F5B3FBF2F002FB103345EA034500FB3A
:100404000CF3AB4207D9ED1900F1FF386FD2AB42C0
:100414006DD902383D44EB1A40EA01418FE7C1F13E
:10042400200722FA07F88B4005FA01F448EA03038F
:1004340020FA07FE4FEA134CFD404EEA040EB5FBCA
:10044400FCF94FEA1E440CFB19551FFA83F844EAE1
:10045400054509FB08F4AC4202FA01F200FA01FA7C
:1004640008D9ED1809F1FF3043D2AC4241D9A9F1C2
:1004740002091D442D1B1FFA8EFEB5FBFCF00CFB7C
:1004840010554EEA054400FB08F8A04507D9E418C6
:1004940000F1FF3529D2A04527D902381C4440EA8F
:1004A4000940A4EB0804A0FB02894C45C6464D460E
:1004B40015D312D056B1BAEB0E0364EB050404FA5B
:1004C40007F7CB401F43CC40376074600021BDE880
:1004D400F0871846F8E69046E0E6C245EAD2B8EB63
:1004E400020E69EB03050138E4E72846D7E74046E6
:1004F40091E78146BEE7014678E702383C4445E788
:10050400084608E7A8F102083D442BE7704700BFFE
:1005140080B58AB000AF07F1140300221A605A6054
:100524009A60DA601A6100233B61314A304B1B6BDD
:1005340043F0040313632E4B1B6B03F004033B6172
:100544003B690023FB602A4A294B1B6B43F0800361
:100554001363274B1B6B03F08003FB60FB680023D2
:10056400BB60234A224B1B6B43F001031363204BF4
:100574001B6B03F00103BB60BB6800237B601C4A58
:100584001B4B1B6B43F002031363194B1B6B03F0F0
:1005940002037B607B680022E021164800F00CFD1A
:1005A4004FF400537B614FF40413BB610023FB61E0
:1005B40007F114031946104800F06CFBE0237B613B
:1005C4000123BB610023FB6100233B6207F1140399
:1005D4001946084800F05EFB00220021282000F0A4
:1005E40022FB282000F03BFB00BF2837BD4680BD1E
:1005F40000380240000002400008024080B582B08A
:1006040000AF00F0A3F900F04DF8FFF781FF00F010
:100614002BF900228021224800F0CEFC0122202167
:100624001F4800F0C9FC44F2682000F001FA0022DF
:1006340020211B4800F0C0FC01224021184800F092
:10064400BBFC4FF4FA6000F0F3F900224021144897
:1006540000F0B2FC01228021114800F0ADFC43F609
:10066400982000F0E5F900237B6014E0002280214B
:100674000B4800F0A1FC4FF4967000F0D9F9012268
:100684008021074800F098FC4FF4967000F0D0F9F0
:100694007B6801337B607B68092BE7DDB9E700BF2A
:1006A4000000024080B594B000AF07F11C0334226F
:1006B4000021184601F0C8FC07F1080300221A6063
:1006C4005A609A60DA601A6100237B602C4A2C4BD2
:1006D4001B6C43F080531364294B1B6C03F0805351
:1006E4007B607B6800233B60264A264B1B6843F4EF
:1006F40040431360234B1B6803F440433B603B6857
:100704000223FB610123BB621023FB6202237B6390
:100714000023BB630823FB63B4233B6402237B6491
:100724000223BB640223FB6407F11C03184600F098
:10073400A1FF0346002B01D000F026F800F07AFC5C
:100744000346002B01D000F01FF80F23BB600223E7
:10075400FB6000233B614FF4A0537B614FF4805353
:10076400BB6107F108030521184600F0B3FC0346FA
:10077400002B01D000F008F800BF5037BD4680BD03
:10078400003802400070004080B400AF72B6FEE74B
:1007940080B582B000AF00237B60104A0F4B5B6CC6
:1007A40043F4804353640D4B5B6C03F480437B60E0
:1007B4007B6800233B60094A084B1B6C43F0805361
:1007C4001364064B1B6C03F080533B603B680720AB
:1007D40000F01EFA00BF0837BD4680BD0038024055
:1007E40080B400AFFEE780B400AFFEE780B400AF92
:1007F400FEE780B400AFFEE780B400AFFEE780B44C
:1008040000AF00BFBD465DF8047B704780B400AF05
:1008140000BFBD465DF8047B704780B400AF00BFE5
:10082400BD465DF8047B704780B500AF00F0E0F88A
:1008340000BF80BD80B500AF4FF4005000F0D6FB80
:1008440000BF80BD80B400AF064A064BD3F88830A1
:1008540043F47003C2F8883000BFBD465DF8047BE2
:10086400704700BF00ED00E080B500AF114B124AA5
:100874001A60104B4FF4E1325A600E4B00229A601A
:100884000C4B0022DA600B4B00221A61094B0C223C
:100894005A61084B00229A61064B0022DA6105482E
:1008A40001F086F90346002B01D0FFF76DFF00BF6E
:1008B40080BD00BF280000200044004080B58AB0FD
:1008C40000AF786007F1140300221A605A609A603E
:1008D400DA601A617B681B68194A93422BD10023A2
:1008E4003B61184A174B1B6C43F400331364154BDC
:1008F4001B6C03F400333B613B690023FB60114A2A
:10090400104B1B6B43F0010313630E4B1B6B03F083
:100914000103FB60FB680C237B610223BB610023A2
:10092400FB6103233B6207237B6207F1140319462F
:10093400054800F0AFF900BF2837BD4680BD00BFB1
:1009440000440040003802400000024080B500AF7F
:100954000E4A0E4B1B6843F4007313600B4A0B4B97
:100964001B6843F480631360084A084B1B6843F414
:1009740080731360032000F04BF9002000F008F8A6
:10098400FFF706FF0023184680BD00BF003C02406D
:1009940080B582B000AF7860124B1A68124B1B7896
:1009A40019464FF47A73B3FBF1F3B2FBF3F3184631
:1009B40000F063F90346002B01D001230EE07B68AD
:1009C4000F2B0AD8002279684FF0FF3000F02BF982
:1009D400064A7B681360002300E0012318460837A9
:1009E400BD4680BD00000020080000200400002057
:1009F40080B400AF064B1B781A46064B1B681344A1
:100A0400044A136000BFBD465DF8047B704700BF15
:100A1400080000206C00002080B400AF034B1B686A
:100A24001846BD465DF8047B704700BF6C0000208B
:100A340080B584B000AF7860FFF7EEFFB8607B68E4
:100A4400FB60FB68B3F1FF3F05D0094B1B781A46E6
:100A5400FB681344FB6000BFFFF7DEFF0246BB6880
:100A6400D21AFB689A42F7D300BF1037BD4680BD47
:100A74000800002080B485B000AF78607B6803F084
:100A84000703FB600C4BDB68BB60BA684FF6FF03DF
:100A94001340BB60FB681A02BB68134343F0BF6397
:100AA40043F40033BB60044ABB68D36000BF14370F
:100AB400BD465DF8047B704700ED00E080B400AFF4
:100AC400044BDB681B0A03F007031846BD465DF8B8
:100AD400047B704700ED00E080B483B000AF0346B0
:100AE400FB7197F90730002B0BDB094997F90730A5
:100AF4005B09FA7902F01F02012000FA02F241F8C0
:100B0400232000BF0C37BD465DF8047B704700BF4F
:100B140000E100E080B483B000AF03463960FB71AC
:100B240097F90730002B0ADB0D4997F907303A682B
:100B3400D2B21201D2B20B4483F800230AE009496D
:100B4400FB7903F00F03043B3A68D2B21201D2B22C
:100B54000B441A7600BF0C37BD465DF8047B704722
:100B640000E100E000ED00E080B489B000AFF8607F
:100B7400B9607A60FB6803F00703FB61FB69C3F1AA
:100B84000703042B28BF0423BB61FB690433062B32
:100B940002D9FB69033B00E000237B610122BB69AE
:100BA40002FA03F35A1EBB681A407B699A4001217A
:100BB4007B6901FA03F3591E7B680B401343184603
:100BC4002437BD465DF8047B7047000080B582B0D1
:100BD40000AF78607B68013BB3F1807F01D30123D0
:100BE4000FE00A4A7B68013B53600F214FF0FF304E
:100BF400FFF790FF054B00229A60044B07221A600E
:100C0400002318460837BD4680BD00BF10E000E051
:100C140080B582B000AF78607868FFF72BFF00BF23
:100C24000837BD4680BD80B586B000AF0346B960C5
:100C34007A60FB7300237B61FFF740FF78617A6879
:100C4400B9687869FFF790FF024697F90F301146AB
:100C54001846FFF75FFF00BF1837BD4680BD80B55B
:100C640082B000AF0346FB7197F907301846FFF7CF
:100C740033FF00BF0837BD4680BD80B582B000AFEA
:100C840078607868FFF7A2FF034618460837BD4628
:100C940080BD000080B489B000AF78603960002363
:100CA4007B6100233B610023BB610023FB6165E1A1
:100CB4000122FB6902FA03F37B613B681A687B69D2
:100CC40013403B613A697B699A4240F054813B6826
:100CD4005B6803F00303012B05D03B685B6803F0FA
:100CE4000303022B30D17B689B68BB61FB695B000B
:100CF400032202FA03F3DB43BA691340BB613B6886
:100D0400DA68FB695B0002FA03F3BA691343BB6157
:100D14007B68BA699A607B685B68BB610122FB6986
:100D240002FA03F3DB43BA691340BB613B685B68B7
:100D34001B0903F00102FB6902FA03F3BA691343C6
:100D4400BB617B68BA695A603B685B6803F0030364
:100D5400032B17D07B68DB68BB61FB695B00032254
:100D640002FA03F3DB43BA691340BB613B689A6838
:100D7400FB695B0002FA03F3BA691343BB617B6846
:100D8400BA69DA603B685B6803F00303022B23D182
:100D9400FB69DA087B68083253F82230BB61FB69CF
:100DA40003F007039B000F2202FA03F3DB43BA6943
:100DB4001340BB613B681A69FB6903F007039B009E
:100DC40002FA03F3BA691343BB61FB69DA087B686F
:100DD4000832B96943F822107B681B68BB61FB6960
:100DE4005B00032202FA03F3DB43BA691340BB61DD
:100DF4003B685B6803F00302FB695B0002FA03F3E0
:100E0400BA691343BB617B68BA691A603B685B6863
:100E140003F44033002B00F0AE800023FB605C4AF7
:100E24005B4B5B6C43F480435364594B5B6C03F43E
:100E34008043FB60FB68574AFB699B08023352F806
:100E44002330BB61FB6903F003039B000F2202FA0A
:100E540003F3DB43BA691340BB617B684E4A934298
:100E640025D07B684D4A93421FD07B684C4A9342FD
:100E740019D07B684B4A934213D07B684A4A934209
:100E84000DD07B68494A934207D07B68484A934215
:100E940001D106230CE007230AE0052308E004231C
:100EA40006E0032304E0022302E0012300E0002320
:100EB400FA6902F0030292009340BA691343BB61DA
:100EC4003449FB699B080233BA6941F82320394B42
:100ED4001B68BB613B69DB43BA691340BB613B6878
:100EE4005B6803F48033002B03D0BA693B69134376
:100EF400BB61304ABB6913602E4B5B68BB613B69C5
:100F0400DB43BA691340BB613B685B6803F400339D
:100F1400002B03D0BA693B691343BB61254ABB6903
:100F24005360244B9B68BB613B69DB43BA69134044
:100F3400BB613B685B6803F48013002B03D0BA6980
:100F44003B691343BB611B4ABB699360194BDB6864
:100F5400BB613B69DB43BA691340BB613B685B68B7
:100F640003F40013002B03D0BA693B691343BB613C
:100F7400104ABB69D360FB690133FB61FB690F2B2A
:100F84007FF696AE00BF2437BD465DF8047B7047FC
:100F940000380240003801400000024000040240D2
:100FA40000080240000C02400010024000140240FD
:100FB40000180240003C014080B483B000AF786068
:100FC4000B467B8013467B707B78002B03D07A889A
:100FD4007B689A6103E07B881A047B689A6100BF8E
:100FE4000C37BD465DF8047B7047000080B582B0C5
:100FF40000AF0346FB80084B5A69FB881340002B63
:1010040006D0054AFB885361FB88184600F006F8B1
:1010140000BF0837BD4680BD003C014080B483B0AA
:1010240000AF0346FB8000BF0C37BD465DF8047B70
:101034007047000080B582B000AF00237B600023BE
:101044003B60204A1F4B1B6C43F0805313641D4BC1
:101054001B6C03F080533B603B681B4B01221A60FE
:10106400FFF7DAFC786009E0FFF7D6FC02467B68FC
:10107400D31AB3F57A7F01D903231FE0134B5B68BE
:1010840003F48033B3F5803FEED1114B01221A6093
:10109400FFF7C2FC786009E0FFF7BEFC02467B68FC
:1010A400D31AB3F57A7F01D9032307E0074B5B68B2
:1010B40003F40033B3F5003FEED10023184608379C
:1010C400BD4680BD0038024040000E420070004022
:1010D40044000E4280B584B000AF786039607B680C
:1010E400002B01D10123CCE0684B1B6803F00F02F5
:1010F4003B689A420CD2654B3A68D2B21A70634B81
:101104001B6803F00F023B689A4201D00123B8E048
:101114007B681B6803F00203002B20D07B681B68EC
:1011240003F00403002B05D0594A594B9B6843F440
:10113400E05393607B681B6803F00803002B05D021
:10114400534A534B9B6843F4604393605049504B5C
:101154009B6823F0F0027B689B6813438B607B6879
:101164001B6803F00103002B44D07B685B68012BF0
:1011740007D1474B1B6803F40033002B19D101231B
:101184007FE07B685B68022B03D07B685B68032B82
:1011940007D13F4B1B6803F00073002B09D10123D7
:1011A4006FE03B4B1B6803F00203002B01D10123CA
:1011B40067E03749364B9B6823F003027B685B6822
:1011C40013438B60FFF728FCF8600AE0FFF724FC68
:1011D4000246FB68D31A41F28832934201D90323B1
:1011E4004FE02B4B9B6803F00C027B685B689B0011
:1011F4009A42EBD1254B1B6803F00F023B689A42DD
:101204000CD9224B3A68D2B21A70204B1B6803F0F7
:101214000F023B689A4201D0012332E07B681B68CD
:1012240003F00403002B08D01949194B9B6823F4DD
:10123400E0527B68DB6813438B607B681B6803F0B8
:101244000803002B09D01249114B9B6823F4604218
:101254007B681B69DB0013438B6000F055F8014683
:101264000B4B9B681B0903F00F030A4AD35C21FA5A
:1012740003F3094A1360094B1B681846FFF788FB00
:10128400002318461037BD4680BD00BF003C024015
:1012940000380240742000080000002004000020F0
:1012A40080B400AF034B1B681846BD465DF8047B51
:1012B400704700BF0000002080B500AFFFF7F0FFCB
:1012C4000146054B9B689B0A03F00703034AD35C62
:1012D40021FA03F3184680BD003802408420000838
:1012E40080B500AFFFF7DCFF0146054B9B685B0B45
:1012F40003F00703034AD35C21FA03F3184680BDC5
:1013040000380240842000082DE9F04FA1B000AF5E
:1013140000237B670023FB6700233B670023FB66F6
:101324000023BB67A04B9B6803F00C030C2B00F25B
:10133400938101A252F823F0711300085D1600088E
:101344005D1600085D160008771300085D16000896
:101354005D1600085D1600087D1300085D16000880
:101364005D1600085D160008F91400088F4BBB6772
:1013740075E18F4BBB6772E18B4B5B6803F03F03F6
:101384007B67894B5B6803F48003002B56D0864B44
:101394005B689B094FF0000440F2FF114FF000021C
:1013A40001EA030102EA04020B461446600178666E
:1013B400786E40EAD36078665B013B66D7E91834FF
:1013C4005B1A64EB0204A001F865F86D40EA9360CF
:1013D400F8659801B865D7E91656ED1A66EB040668
:1013E4003346DB007B657B6D284643EA50737B659F
:1013F4002B46DB003B65D7E914341D4626466B18A3
:1014040046EB0204184621460B465B02FB64FB6C68
:10141400024643EAD253FB6403465B02BB64D7E94A
:101424001234184621467B6F4FF000041A462346B7
:10143400FEF7E6FE03460C46FB674DE05A4B5B683D
:101444009B094FF0000440F2FF114FF0000201EA43
:10145400030102EA04020B46144660017864786CC6
:1014640040EAD36078645B013B64D7E910345B1ACB
:1014740064EB02044FEA841B4BEA936B4FEA831A32
:10148400BAEB030A6BEB040B4FEACB03FB63FB6B76
:1014940043EA5A73FB634FEACA03BB63D7E90EAB53
:1014A4001AEB010A4BEB020B4FEA8B237B637B6B3A
:1014B40043EA9A537B634FEA8A233B63D7E90CAB35
:1014C400504659467B6F4FF000041A462346FEF7F8
:1014D40097FE03460C46FB67334B5B681B0C03F01B
:1014E400030301335B003B67FA6F3B6FB2FBF3F31B
:1014F400BB67B4E02C4B5B6803F03F037B672A4B6C
:101504005B6803F48003002B54D0274B5B689B0972
:101514004FF0000440F2FF114FF0000201EA030112
:1015240002EA04020B4614466001F862F86A40EAD3
:10153400D360F8625B01BB62D7E90A345B1A64EBDF
:1015440002044FEA841949EA93694FEA8318B8EB15
:10155400030869EB04094FEAC9037B627B6A43EA27
:1015640058737B624FEAC8033B62D7E9088918EBDA
:10157400010849EB02094FEA4923FB61FB6943EA8D
:10158400D853FB614FEA4823BB61D7E9068940463B
:1015940049467B6F4FF000041A462346FEF730FE9F
:1015A40003460C46FB674BE0003802400024F4007D
:1015B40000127A002D4B5B689B094FF0000440F247
:1015C400FF114FF0000201EA030102EA04020B4694
:1015D400144660017861786940EAD36078615B0100
:1015E4003B61D7E904345B1A64EB0204A60146EAC2
:1015F40093669D01ED1A66EB0406F300FB60FB683D
:1016040043EA5573FB60EB00BB60D7E902566D18E3
:1016140046EB0206B3027B607B6843EA95537B602A
:10162400AB023B6097E86000284631467B6F4FF081
:1016340000041A462346FEF7E3FD03460C46FB6707
:101644000A4B5B681B0F03F00703FB66FA6FFB6E24
:10165400B2FBF3F3BB6702E0054BBB6700BFBB6F94
:1016640018468437BD46BDE8F08F00BF00380240FD
:101674000024F40080B586B000AF78607B68002B4E
:1016840001D101238DE27B681B6803F00103002B69
:1016940000F08380944B9B6803F00C03042B19D057
:1016A400914B9B6803F00C03082B06D18E4B5B68AF
:1016B40003F48003B3F5800F0CD08B4B9B6803F0CD
:1016C4000C030C2B12D1884B5B6803F48003B3F535
:1016D400800F0BD1844B1B6803F40033002B5BD0C9
:1016E4007B685B68002B57D101235AE27B685B68F7
:1016F400B3F5803F06D17C4A7B4B1B6843F48033AF
:1017040013601DE07B685B68B3F5A02F0CD1764AAB
:10171400754B1B6843F480231360734A724B1B6838
:1017240043F4803313600BE06F4A6F4B1B6823F460
:10173400803313606C4A6C4B1B6823F48023136062
:101744007B685B68002B13D0FFF766F9386108E00B
:10175400FFF762F902463B69D31A642B01D90323CC
:101764001FE2614B1B6803F40033002BF0D014E03C
:10177400FFF752F9386108E0FFF74EF902463B697A
:10178400D31A642B01D903230BE2574B1B6803F4D0
:101794000033002BF0D100E000BF7B681B6803F02E
:1017A4000203002B6FD0504B9B6803F00C03002BFB
:1017B40017D04D4B9B6803F00C03082B05D14A4B03
:1017C4005B6803F48003002B0BD0474B9B6803F04A
:1017D4000C030C2B1CD1444B5B6803F48003002BDB
:1017E40016D1414B1B6803F00203002B05D07B6824
:1017F400DB68012B01D00123D3E13B493A4B1B6841
:1018040023F0F8027B681B69DB0013430B603AE0AA
:101814007B68DB68002B20D0344B01221A60FFF771
:10182400FBF8386108E0FFF7F7F802463B69D31A82
:10183400022B01D90323B4E12B4B1B6803F00203F1
:10184400002BF0D02849284B1B6823F0F8027B6852
:101854001B69DB0013430B6015E0244B00221A6064
:10186400FFF7DAF8386108E0FFF7D6F802463B697B
:10187400D31A022B01D9032393E11B4B1B6803F0FA
:101884000203002BF0D17B681B6803F00803002BD4
:1018940036D07B685B69002B16D0154B01221A6089
:1018A400FFF7BAF8386108E0FFF7B6F802463B697B
:1018B400D31A022B01D9032373E10B4B5B6F03F0A3
:1018C4000203002BF0D01BE0094B00221A60FFF743
:1018D400A3F838610EE0FFF79FF802463B69D31A7C
:1018E400022B07D903235CE1003802400000474281
:1018F400800E47428A4B5B6F03F00203002BEAD150
:101904007B681B6803F00403002B00F0978000231E
:10191400FB75834B1B6C03F08053002B0FD100230A
:10192400BB607F4A7E4B1B6C43F0805313647C4B3B
:101934001B6C03F08053BB60BB680123FB75794BC0
:101944001B6803F48073002B18D1764A754B1B680F
:1019540043F480731360FFF75FF8386108E0FFF722
:101964005BF802463B69D31A022B01D9032318E121
:101974006C4B1B6803F48073002BF0D07B689B686E
:10198400012B06D1664A664B1B6F43F001031367B4
:101994001CE07B689B68052B0CD1614A604B1B6F74
:1019A40043F0040313675E4A5D4B1B6F43F001036E
:1019B40013670BE05A4A5A4B1B6F23F0010313675A
:1019C400574A574B1B6F23F0040313677B689B68CC
:1019D400002B15D0FFF720F838610AE0FFF71CF858
:1019E40002463B69D31A41F28832934201D9032358
:1019F400D7E04B4B1B6F03F00203002BEED014E037
:101A0400FFF70AF838610AE0FFF706F802463B6977
:101A1400D31A41F28832934201D90323C1E0404BE7
:101A24001B6F03F00203002BEED1FB7D012B05D1CC
:101A34003B4A3B4B1B6C23F0805313647B689B69CC
:101A4400002B00F0AD80364B9B6803F00C03082B91
:101A540060D07B689B69022B45D1334B00221A600E
:101A6400FEF7DAFF386108E0FEF7D6FF02463B696D
:101A7400D31A022B01D9032393E0294B1B6803F0EB
:101A84000073002BF0D126497B68DA697B681B6AF6
:101A94001A437B685B6A9B011A437B689B6A5B08F9
:101AA400013B1B041A437B68DB6A1B061A437B68F1
:101AB4001B6B1B0713434B601B4B01221A60FEF781
:101AC400ABFF386108E0FEF7A7FF02463B69D31A73
:101AD400022B01D9032364E0114B1B6803F000734C
:101AE400002BF0D05CE0104B00221A60FEF794FF4C
:101AF400386108E0FEF790FF02463B69D31A022BD7
:101B040001D903234DE0064B1B6803F00073002B3F
:101B1400F0D145E07B689B69012B07D1012340E0AC
:101B24000038024000700040600047421F4B5B6871
:101B3400FB607B689B69012B30D0FB6803F4800257
:101B44007B68DB699A4229D1FB6803F03F027B681A
:101B54001B6A9A4222D1FA6847F6C07313407A6826
:101B6400526A9201934219D1FB6803F440327B68B4
:101B74009B6A5B08013B1B049A420FD1FB6803F08C
:101B840070627B68DB6A1B069A4207D1FB6803F02C
:101B9400E0427B681B6B1B079A4201D0012300E0E3
:101BA400002318461837BD4680BD00BF00380240E8
:101BB40080B582B000AF78607B68002B01D101232F
:101BC4003FE07B6893F83D30DBB2002B06D17B68A5
:101BD400002283F83C207868FEF770FE7B6824229C
:101BE40083F83D207B681B687A681268D26822F407
:101BF4000052DA60786800F029F87B681B687A681C
:101C04001268126922F490421A617B681B687A6830
:101C14001268526922F02A025A617B681B687A684A
:101C24001268D26842F40052DA607B6800221A64B7
:101C34007B68202283F83D207B68202283F83E20A5
:101C4400002318460837BD4680BD00002DE9F04F3B
:101C540091B000AF78637B6B19687B6B1B681B6961
:101C640023F440527B6BDB6813430B617B6B9A68F4
:101C74007B6B1B691A437B6B5B691A437B6BDB6968
:101C84001343BB637B6B19687B6B1B68DB6823F4B2
:101C9400164222F00C02BB6B1343CB607B6B1968BA
:101CA4007B6B1B685B6923F440727B6B9B691343FA
:101CB4004B617B6B1A68BA4B9A4204D07B6B1A68EF
:101CC400B84B9A4203D1FFF70BFBF86302E0FFF72E
:101CD400F3FAF8637B6BDB69B3F5004F40F0A78040
:101CE4007B6B1A68BA62FB6B19464FF000020B4615
:101CF4001446DB1844EB04045B1844EB0204E000D4
:101D04007861786940EA53707861DB003B61D7E918
:101D140004345D1844EB0206284631467B6B5B684D
:101D24004FF00004DB1844EB04041A462346FEF784
:101D340067FA03460C461A469B4BA3FB02235B0936
:101D44001E01FB6B19464FF000020B461446DB18CC
:101D540044EB04045B1844EB02044FEAC40B4BEA63
:101D6400537B4FEAC30A53465C4613EB010A44EB28
:101D7400020B504659467B6B5B684FF00004DB183E
:101D840044EB04041A462346FEF73AFA03460C468B
:101D94001A46854BA3FB02135B09642101FB03F381
:101DA400D31ADB003233804AA2FB03235B095B00B6
:101DB40003F4F8731E44FB6B19464FF000020B4604
:101DC4001446DB1844EB04045B1844EB02044FEAAA
:101DD400C40949EA53794FEAC30843464C4613EB16
:101DE400010844EB0209404649467B6B5B684FF0AF
:101DF4000004DB1844EB04041A462346FEF700FAF9
:101E040003460C461A46684BA3FB02135B09642184
:101E140001FB03F3D31ADB003233634AA2FB03232F
:101E24005B0903F007033344BA6A9360B3E07B6B46
:101E34001B683B61FB6B19464FF000020B461446CE
:101E4400DB1844EB04045B1844EB0204E60046EAA6
:101E54005376DD002B4634465D1844EB02062846D3
:101E640031467B6B5B684FF00004A500FD62FD6AA0
:101E740045EA9375FD629C00BC62D7E90A23FEF72C
:101E8400BFF903460C461A46474BA3FB02135B09F2
:101E94001D01FB6B19464FF000020B461446DB187C
:101EA40044EB04045B1844EB0204E000F860F868B7
:101EB40040EA5370F860D800B860D7E9023413EBF5
:101EC400010844EB0209404649467B6B5B684FF0CE
:101ED4000004A6007E627E6A46EA93767E629C00D7
:101EE4003C62D7E90823FEF78BF903460C461A46F1
:101EF4002D4BA3FB02135B09642101FB03F3D31AEB
:101F04001B013233284AA2FB03135B0903F0F003DD
:101F14001D44FB6B19464FF000020B461446DB18B8
:101F240044EB04045B1844EB0204E0007860786836
:101F340040EA53707860D800386097E8180013EBD3
:101F4400010844EB0209404649467B6B5B684FF04D
:101F54000004A600FE61FE6946EA9376FE619C00D9
:101F6400BC61D7E90623FEF74BF903460C461A4633
:101F74000D4BA3FB02135B09642101FB03F3D31A8A
:101F84001B013233084AA2FB03135B0903F00F035E
:101F94002B443A69936000BF4437BD46BDE8F08FD7
:101FA40000100140001401401F85EB51DFF834D0CC
:101FB4000D480E490E4A002302E0D458C45004339D
:101FC400C4188C42F9D30B4A0B4C002301E0136074
:101FD4000432A242FBD3FEF735FC00F011F8FEF701
:101FE4000DFB704700000220000000200C000020C0
:101FF4009C2000080C00002070000020FEE7000078
:1020040070B50D4E0D4CA41BA4100025A54209D19A
:102014000B4E0C4C00F020F8A41BA4100025A54284
:1020240005D170BD56F8253098470135EEE756F8CE
:10203400253098470135F2E79420000894200008E1
:10204400942000089820000802440346934200D1DB
:10205400704703F8011BF9E7F8B500BFF8BC08BCEA
:102064009E467047F8B500BFF8BC08BC9E46704752
:102074000000000000000000010203040607080934
:0820840000000000010203044A
:08208C00A8E1FF7F0100000044
:04209400E901000856
:04209800C501000876
:0C209C000024F40010000000010000000F
:0400000508001FB11F
:00000001FF
