:020000040800F2
:1000000000000220192200085D09000863090008A9
:10001000690900086F090008750900080000000060
:100020000000000000000000000000007B09000844
:10003000890900080000000097090008A5090008C8
:100040006922000869220008692200086922000864
:100050006922000869220008692200086922000854
:100060006922000869220008692200086922000844
:100070006922000869220008692200086922000834
:100080006922000869220008692200086922000824
:100090006922000869220008692200086922000814
:1000A0006922000869220008692200086922000804
:1000B00069220008692200086922000869220008F4
:1000C00069220008692200086922000869220008E4
:1000D00069220008692200086922000869220008D4
:1000E00069220008692200086922000869220008C4
:1000F00069220008692200086922000869220008B4
:1001000069220008692200086922000869220008A3
:100110006922000869220008692200086922000893
:100120006922000869220008692200086922000883
:100130006922000800000000000000006922000899
:100140006922000869220008692200086922000863
:100150006922000869220008692200086922000853
:100160006922000869220008692200086922000843
:1001700069220008692200086922000800000000C6
:1001800000000000692200080000000000000000DC
:100190006922000800000000000000006922000839
:1001A00000000000000000000000000069220008BC
:1001B00069220008692200086922000869220008F3
:0401C00069220008A8
:1001D00010B5054C237833B9044B13B10448AFF381
:1001E00000800123237010BD70000020000000007B
:1001F0000C2B000808B5034B1BB103490348AFF3B0
:10020000008008BD00000000740000200C2B0008D6
:1002100001F0FF01102A2BDB10F0070F08D010F8B7
:10022000013B013A8B422DD010F0070F42B3F6D1BB
:10023000F0B441EA012141EA014122F007047FF0D4
:1002400000070023F0E80256083C85EA010586EA2B
:10025000010685FA47F5A3FA87F586FA47F6A5FA67
:1002600087F68EB9EED1F0BC01F0FF0102F0070273
:1002700032B110F8013B013A83EA010313B1F8D11E
:100280000020704701387047002D06BF35460338FF
:10029000073815F0010F07D1013015F4807F02BF38
:1002A000013015F4C03F0130F0BC0138704700BF89
:1002B00053B94AB9002908BF00281CBF4FF0FF31CD
:1002C0004FF0FF3000F07AB9ADF1080C6DE904CEC3
:1002D00000F006F8DDF804E0DDE9022304B0704721
:1002E0002DE9F0478C460D460446089E002B51D15F
:1002F0008A4217466DD9B2FA82FEBEF1000F0BD0CA
:10030000CEF1200C01FA0EF520FA0CFC02FA0EF7E1
:100310004CEA050C00FA0EF44FEA174A250CBCFB18
:10032000FAF81FFA87F90AFB18CC45EA0C4508FBD6
:1003300009F3AB420AD9ED1908F1FF3280F02381AD
:10034000AB4240F22081A8F102083D44ED1AA4B26C
:10035000B5FBFAF00AFB105544EA054400FB09F925
:10036000A14509D9E41900F1FF3380F00A81A145C4
:1003700040F2078102383C44A4EB090440EA0840FB
:100380000021002E61D024FA0EF400233460736043
:10039000BDE8F0878B4207D9002E54D0002186E8B3
:1003A00021000846BDE8F087B3FA83F1002940F048
:1003B0008E80AB4202D3824200F2FA80841A65EB4F
:1003C00003050120AC46002E3FD086E81010BDE8A2
:1003D000F08712B90127B7FBF2F7B7FA87FEBEF133
:1003E000000F34D1EB1B3A0C1FFA87FC0121B3FB41
:1003F000F2F8250C02FB183345EA03450CFB08F321
:10040000AB4207D9ED1908F1FF3002D2AB4200F23E
:10041000D1808046ED1AA3B2B5FBF2F002FB105575
:1004200043EA05440CFB00FCA44507D9E41900F19C
:10043000FF3302D2A44500F2B8801846A4EB0C04A6
:1004400040EA08409DE731463046BDE8F087CEF1EE
:10045000200405FA0EF307FA0EF720FA04F83A0C16
:1004600025FA04F448EA0308B4FBF2F14FEA184510
:1004700002FB11441FFA87FC45EA044501FB0CF31B
:10048000AB4200FA0EF409D9ED1901F1FF3080F00A
:100490008A80AB4240F2878002393D44EB1A1FFA52
:1004A00088F5B3FBF2F002FB103345EA034500FB8D
:1004B0000CF3AB4207D9ED1900F1FF386FD2AB4214
:1004C0006DD902383D44EB1A40EA01418FE7C1F192
:1004D000200722FA07F88B4005FA01F448EA0303E3
:1004E00020FA07FE4FEA134CFD404EEA040EB5FB1E
:1004F000FCF94FEA1E440CFB19551FFA83F844EA35
:10050000054509FB08F4AC4202FA01F200FA01FACF
:1005100008D9ED1809F1FF3043D2AC4241D9A9F115
:1005200002091D442D1B1FFA8EFEB5FBFCF00CFBCF
:1005300010554EEA054400FB08F8A04507D9E41819
:1005400000F1FF3529D2A04527D902381C4440EAE2
:100550000940A4EB0804A0FB02894C45C6464D4661
:1005600015D312D056B1BAEB0E0364EB050404FAAE
:1005700007F7CB401F43CC40376074600021BDE8D3
:10058000F0871846F8E69046E0E6C245EAD2B8EBB6
:10059000020E69EB03050138E4E72846D7E7404639
:1005A00091E78146BEE7014678E702383C4445E7DB
:1005B000084608E7A8F102083D442BE7704700BF52
:1005C00090B58FB000AF00F031FA00F04DF800F0B8
:1005D000E3F800F0B7F83B461E4A1C4613460FCB23
:1005E00007C423700C237B637B6B9AB23946642368
:1005F000194801F062FB194801F0AAFA174B1B6871
:100600005B6A7B8601222021154800F019FD4FF41A
:10061000FA7000F07DFA00222021114800F010FD50
:100620000E4B1B685B6A9AB27B8ED31A7B867A8EDE
:100630003B460C49184601F04BFE78637B6B9AB23F
:1006400039466423044801F038FB4FF47A7000F017
:100650005FFAD3E7242B0008E00000209800002078
:1006600000000240342B000880B594B000AF07F1C1
:100670001C0334220021184601F022FE07F1080372
:1006800000221A605A609A60DA601A6100237B6067
:100690002A4A2A4B1B6C43F080531364274B1B6C74
:1006A00003F080537B607B6800233B60244A244B2B
:1006B0001B6823F4404343F480431360204B1B68C2
:1006C00003F440433B603B680223FB610123BB62B0
:1006D0001023FB6202237B630023BB631023FB63B5
:1006E0004FF4A8733B6404237B640223BB6402239E
:1006F000FB6407F11C03184600F08CFF0346002B37
:1007000001D000F0B7F80F23BB600223FB60002389
:100710003B614FF480537B610023BB6107F1080309
:100720000221184600F0A6FC0346002B01D000F081
:10073000A1F800BF5037BD4680BD00BF0038024061
:100740000070004080B500AF114B124A1A60104B88
:100750004FF4E1325A600E4B00229A600C4B00229B
:10076000DA600B4B00221A61094B0C225A61084BCC
:1007700000229A61064B0022DA61054801F050FA26
:100780000346002B01D000F075F800BF80BD00BF0C
:10079000E00000200044004080B58AB000AF07F1BF
:1007A000140300221A605A609A60DA601A6100230A
:1007B0003B612D4A2C4B1B6B43F0040313632A4B04
:1007C0001B6B03F004033B613B690023FB60264A7B
:1007D000254B1B6B43F080031363234B1B6B03F010
:1007E0008003FB60FB680023BB601F4A1E4B1B6B32
:1007F00043F0010313631C4B1B6B03F00103BB604D
:10080000BB6800237B60184A174B1B6B43F0020345
:100810001363154B1B6B03F002037B607B680022A4
:100820002021124800F00CFC4FF400537B614FF480
:100830000413BB610023FB6107F1140319460C4844
:1008400000F06CFA20237B610123BB610023FB6174
:1008500000233B6207F114031946044800F05EFAD6
:1008600000BF2837BD4680BD00380240000002406E
:100870000008024080B400AF72B6FEE780B582B0D7
:1008800000AF00237B60104A0F4B5B6C43F4804346
:1008900053640D4B5B6C03F480437B607B680023E7
:1008A0003B60094A084B1B6C43F080531364064BB2
:1008B0001B6C03F080533B603B68072000F0FAF9A3
:1008C00000BF0837BD4680BD0038024080B58AB001
:1008D00000AF786007F1140300221A605A609A6032
:1008E000DA601A617B681B68194A93422BD1002396
:1008F0003B61184A174B1B6C43F400331364154BD0
:100900001B6C03F400333B613B690023FB60114A1D
:10091000104B1B6B43F0010313630E4B1B6B03F077
:100920000103FB60FB680C237B610223BB61002396
:10093000FB6103233B6207237B6207F11403194623
:10094000054800F0EBF900BF2837BD4680BD00BF69
:1009500000440040003802400000024080B400AF74
:10096000FEE780B400AFFEE780B400AFFEE780B4DE
:1009700000AFFEE780B400AFFEE780B400AF00BF79
:10098000BD465DF8047B704780B400AF00BFBD4634
:100990005DF8047B704780B400AF00BFBD465DF8D2
:1009A000047B704780B500AF00F092F800BF80BDB7
:1009B00080B584B000AF7860114B1B68002B02D16A
:1009C0000F4B104A1A600E4B1B68FB600C4B1A68E9
:1009D0007B6813446A46934207D901F047FC0246FC
:1009E0000C2313604FF0FF3306E0054B1A687B6859
:1009F0001344034A1360FB6818461037BD4680BD98
:100A00008C0000202C01002080B400AF064A064B69
:100A1000D3F8883043F47003C2F8883000BFBD4675
:100A20005DF8047B704700BF00ED00E080B500AFCB
:100A30000E4A0E4B1B6843F4007313600B4A0B4BBA
:100A40001B6843F480631360084A084B1B6843F437
:100A500080731360032000F02DF9002000F008F8E7
:100A6000FFF70CFF0023184680BD00BF003C02408A
:100A700080B582B000AF7860124B1A68124B1B78B9
:100A800019464FF47A73B3FBF1F3B2FBF3F3184654
:100A900000F037F90346002B01D001230EE07B68FC
:100AA0000F2B0AD8002279684FF0FF3000F00DF9C3
:100AB000064A7B681360002300E0012318460837CC
:100AC000BD4680BD0000002008000020040000207A
:100AD00080B400AF064B1B781A46064B1B681344C4
:100AE000044A136000BFBD465DF8047B704700BF39
:100AF000080000202401002080B400AF034B1B68D5
:100B00001846BD465DF8047B704700BF24010020F5
:100B100080B584B000AF7860FFF7EEFFB8607B6807
:100B2000FB60FB68B3F1FF3F05D0094B1B781A4609
:100B3000FB681344FB6000BFFFF7DEFF0246BB68A3
:100B4000D21AFB689A42F7D300BF1037BD4680BD6A
:100B50000800002080B485B000AF78607B6803F0A7
:100B60000703FB600C4BDB68BB60BA684FF6FF0302
:100B70001340BB60FB681A02BB68134343F0BF63BA
:100B800043F40033BB60044ABB68D36000BF143732
:100B9000BD465DF8047B704700ED00E080B400AF17
:100BA000044BDB681B0A03F007031846BD465DF8DB
:100BB000047B704700ED00E080B483B000AF0346D3
:100BC0003960FB7197F90730002B0ADB0D4997F963
:100BD00007303A68D2B21201D2B20B4483F8002334
:100BE0000AE00949FB7903F00F03043B3A68D2B2EB
:100BF0001201D2B20B441A7600BF0C37BD465DF825
:100C0000047B704700E100E000ED00E080B489B0B3
:100C100000AFF860B9607A60FB6803F00703FB611E
:100C2000FB69C3F10703042B28BF0423BB61FB69E5
:100C30000433062B02D9FB69033B00E000237B61F0
:100C40000122BB6902FA03F35A1EBB681A407B6992
:100C50009A4001217B6901FA03F3591E7B680B401E
:100C6000134318462437BD465DF8047B70470000E7
:100C700080B582B000AF78607B68013BB3F1807FC4
:100C800001D301230FE00A4A7B68013B53600F2127
:100C90004FF0FF30FFF790FF054B00229A60044BA6
:100CA00007221A60002318460837BD4680BD00BFE2
:100CB00010E000E080B582B000AF78607868FFF7A0
:100CC00049FF00BF0837BD4680BD80B586B000AF84
:100CD0000346B9607A60FB7300237B61FFF75EFF18
:100CE00078617A68B9687869FFF790FF024697F9EA
:100CF0000F3011461846FFF75FFF00BF1837BD469B
:100D000080BD80B582B000AF78607868FFF7B0FF33
:100D1000034618460837BD4680BD000080B489B040
:100D200000AF7860396000237B6100233B610023C2
:100D3000BB610023FB6165E10122FB6902FA03F359
:100D40007B613B681A687B6913403B613A697B6948
:100D50009A4240F054813B685B6803F00303012B27
:100D600005D03B685B6803F00303022B30D17B683E
:100D70009B68BB61FB695B00032202FA03F3DB4360
:100D8000BA691340BB613B68DA68FB695B0002FA31
:100D900003F3BA691343BB617B68BA699A607B68E5
:100DA0005B68BB610122FB6902FA03F3DB43BA69AA
:100DB0001340BB613B685B681B0903F00102FB69E0
:100DC00002FA03F3BA691343BB617B68BA695A60DC
:100DD0003B685B6803F00303032B17D07B68DB6879
:100DE000BB61FB695B00032202FA03F3DB43BA69D0
:100DF0001340BB613B689A68FB695B0002FA03F32E
:100E0000BA691343BB617B68BA69DA603B685B68A7
:100E100003F00303022B23D1FB69DA087B68083255
:100E200053F82230BB61FB6903F007039B000F22DC
:100E300002FA03F3DB43BA691340BB613B681A69EA
:100E4000FB6903F007039B0002FA03F3BA6913433B
:100E5000BB61FB69DA087B680832B96943F8221084
:100E60007B681B68BB61FB695B00032202FA03F32A
:100E7000DB43BA691340BB613B685B6803F0030264
:100E8000FB695B0002FA03F3BA691343BB617B6839
:100E9000BA691A603B685B6803F44033002B00F0CA
:100EA000AE800023FB605C4A5B4B5B6C43F4804389
:100EB0005364594B5B6C03F48043FB60FB68574AF7
:100EC000FB699B08023352F82330BB61FB6903F0D6
:100ED00003039B000F2202FA03F3DB43BA691340BA
:100EE000BB617B684E4A934225D07B684D4A934252
:100EF0001FD07B684C4A934219D07B684B4A93427F
:100F000013D07B684A4A93420DD07B68494A93428A
:100F100007D07B68484A934201D106230CE007239F
:100F20000AE0052308E0042306E0032304E002238B
:100F300002E0012300E00023FA6902F003029200BC
:100F40009340BA691343BB613449FB699B08023380
:100F5000BA6941F82320394B1B68BB613B69DB430D
:100F6000BA691340BB613B685B6803F48033002BB4
:100F700003D0BA693B691343BB61304ABB69136054
:100F80002E4B5B68BB613B69DB43BA691340BB61B5
:100F90003B685B6803F40033002B03D0BA693B69FC
:100FA0001343BB61254ABB695360244B9B68BB61FB
:100FB0003B69DB43BA691340BB613B685B6803F480
:100FC0008013002B03D0BA693B691343BB611B4AF2
:100FD000BB699360194BDB68BB613B69DB43BA6952
:100FE0001340BB613B685B6803F40013002B03D024
:100FF000BA693B691343BB61104ABB69D360FB69A3
:101000000133FB61FB690F2B7FF696AE00BF2437DF
:10101000BD465DF8047B704700380240003801404F
:10102000000002400004024000080240000C0240A0
:10103000001002400014024000180240003C014031
:1010400080B483B000AF78600B467B8013467B7022
:101050007B78002B03D07A887B689A6103E07B88D9
:101060001A047B689A6100BF0C37BD465DF8047BAB
:101070007047000080B584B000AF786039607B684D
:10108000002B01D10123CCE0684B1B6803F00F0259
:101090003B689A420CD2654B3A68D2B21A70634BE5
:1010A0001B6803F00F023B689A4201D00123B8E0AD
:1010B0007B681B6803F00203002B20D07B681B6851
:1010C00003F00403002B05D0594A594B9B6843F4A5
:1010D000E05393607B681B6803F00803002B05D086
:1010E000534A534B9B6843F4604393605049504BC1
:1010F0009B6823F0F0027B689B6813438B607B68DE
:101100001B6803F00103002B44D07B685B68012B54
:1011100007D1474B1B6803F40033002B19D101237F
:101120007FE07B685B68022B03D07B685B68032BE6
:1011300007D13F4B1B6803F00073002B09D101233B
:101140006FE03B4B1B6803F00203002B01D101232E
:1011500067E03749364B9B6823F003027B685B6886
:1011600013438B60FFF7C8FCF8600AE0FFF7C4FC8C
:101170000246FB68D31A41F28832934201D9032315
:101180004FE02B4B9B6803F00C027B685B689B0075
:101190009A42EBD1254B1B6803F00F023B689A4241
:1011A0000CD9224B3A68D2B21A70204B1B6803F05C
:1011B0000F023B689A4201D0012332E07B681B6832
:1011C00003F00403002B08D01949194B9B6823F442
:1011D000E0527B68DB6813438B607B681B6803F01D
:1011E0000803002B09D01249114B9B6823F460427D
:1011F0007B681B69DB0013438B6000F055F80146E8
:101200000B4B9B681B0903F00F030A4AD35C21FABE
:1012100003F3094A1360094B1B681846FFF728FCC3
:10122000002318461037BD4680BD00BF003C024079
:10123000003802403C2B0008000000200400002081
:1012400080B400AF034B1B681846BD465DF8047BB5
:10125000704700BF0000002080B500AFFFF7F0FF2F
:101260000146054B9B689B0A03F00703034AD35CC6
:1012700021FA03F3184680BD003802404C2B0008C9
:1012800080B500AFFFF7DCFF0146054B9B685B0BA9
:1012900003F00703034AD35C21FA03F3184680BD29
:1012A000003802404C2B00082DE9F04FA1B000AFF0
:1012B00000237B670023FB6700233B670023FB665B
:1012C0000023BB67A04B9B6803F00C030C2B00F2C0
:1012D000938101A252F823F00D130008F9150008BC
:1012E000F9150008F915000813130008F91500088E
:1012F000F9150008F915000819130008F915000878
:10130000F9150008F9150008951400088F4BBB6704
:1013100075E18F4BBB6772E18B4B5B6803F03F035A
:101320007B67894B5B6803F48003002B56D0864BA8
:101330005B689B094FF0000440F2FF114FF0000280
:1013400001EA030102EA04020B46144660017866D2
:10135000786E40EAD36078665B013B66D7E9183463
:101360005B1A64EB0204A001F865F86D40EA936033
:10137000F8659801B865D7E91656ED1A66EB0406CC
:101380003346DB007B657B6D284643EA50737B6503
:101390002B46DB003B65D7E914341D4626466B1807
:1013A00046EB0204184621460B465B02FB64FB6CCD
:1013B000024643EAD253FB6403465B02BB64D7E9AF
:1013C0001234184621467B6F4FF000041A4623461C
:1013D000FEF76EFF03460C46FB674DE05A4B5B6819
:1013E0009B094FF0000440F2FF114FF0000201EAA8
:1013F000030102EA04020B46144660017864786C2B
:1014000040EAD36078645B013B64D7E910345B1A2F
:1014100064EB02044FEA841B4BEA936B4FEA831A96
:10142000BAEB030A6BEB040B4FEACB03FB63FB6BDA
:1014300043EA5A73FB634FEACA03BB63D7E90EABB7
:101440001AEB010A4BEB020B4FEA8B237B637B6B9E
:1014500043EA9A537B634FEA8A233B63D7E90CAB99
:10146000504659467B6F4FF000041A462346FEF75C
:101470001FFF03460C46FB67334B5B681B0C03F0F6
:10148000030301335B003B67FA6F3B6FB2FBF3F37F
:10149000BB67B4E02C4B5B6803F03F037B672A4BD0
:1014A0005B6803F48003002B54D0274B5B689B09D7
:1014B0004FF0000440F2FF114FF0000201EA030177
:1014C00002EA04020B4614466001F862F86A40EA38
:1014D000D360F8625B01BB62D7E90A345B1A64EB44
:1014E00002044FEA841949EA93694FEA8318B8EB7A
:1014F000030869EB04094FEAC9037B627B6A43EA8C
:1015000058737B624FEAC8033B62D7E9088918EB3E
:10151000010849EB02094FEA4923FB61FB6943EAF1
:10152000D853FB614FEA4823BB61D7E9068940469F
:1015300049467B6F4FF000041A462346FEF7B8FE7B
:1015400003460C46FB674BE0003802400024F400E1
:1015500000127A002D4B5B689B094FF0000440F2AB
:10156000FF114FF0000201EA030102EA04020B46F8
:10157000144660017861786940EAD36078615B0164
:101580003B61D7E904345B1A64EB0204A60146EA26
:1015900093669D01ED1A66EB0406F300FB60FB68A1
:1015A00043EA5573FB60EB00BB60D7E902566D1848
:1015B00046EB0206B3027B607B6843EA95537B608F
:1015C000AB023B6097E86000284631467B6F4FF0E6
:1015D00000041A462346FEF76BFE03460C46FB67E3
:1015E0000A4B5B681B0F03F00703FB66FA6FFB6E89
:1015F000B2FBF3F3BB6702E0054BBB6700BFBB6FF9
:1016000018468437BD46BDE8F08F00BF0038024061
:101610000024F40080B586B000AF78607B68002BB2
:1016200001D101238DE27B681B6803F00103002BCD
:1016300000F08380944B9B6803F00C03042B19D0BB
:10164000914B9B6803F00C03082B06D18E4B5B6813
:1016500003F48003B3F5800F0CD08B4B9B6803F031
:101660000C030C2B12D1884B5B6803F48003B3F599
:10167000800F0BD1844B1B6803F40033002B5BD02D
:101680007B685B68002B57D101235AE27B685B685B
:10169000B3F5803F06D17C4A7B4B1B6843F4803313
:1016A00013601DE07B685B68B3F5A02F0CD1764A10
:1016B000754B1B6843F480231360734A724B1B689D
:1016C00043F4803313600BE06F4A6F4B1B6823F4C5
:1016D000803313606C4A6C4B1B6823F480231360C7
:1016E0007B685B68002B13D0FFF706FA386108E0CF
:1016F000FFF702FA02463B69D31A642B01D9032390
:101700001FE2614B1B6803F40033002BF0D014E0A0
:10171000FFF7F2F9386108E0FFF7EEF902463B699E
:10172000D31A642B01D903230BE2574B1B6803F434
:101730000033002BF0D100E000BF7B681B6803F092
:101740000203002B6FD0504B9B6803F00C03002B5F
:1017500017D04D4B9B6803F00C03082B05D14A4B67
:101760005B6803F48003002B0BD0474B9B6803F0AE
:101770000C030C2B1CD1444B5B6803F48003002B3F
:1017800016D1414B1B6803F00203002B05D07B6888
:10179000DB68012B01D00123D3E13B493A4B1B68A5
:1017A00023F0F8027B681B69DB0013430B603AE00F
:1017B0007B68DB68002B20D0344B01221A60FFF7D6
:1017C0009BF9386108E0FFF797F902463B69D31AA5
:1017D000022B01D90323B4E12B4B1B6803F0020356
:1017E000002BF0D02849284B1B6823F0F8027B68B7
:1017F0001B69DB0013430B6015E0244B00221A60C9
:10180000FFF77AF9386108E0FFF776F902463B699D
:10181000D31A022B01D9032393E11B4B1B6803F05E
:101820000203002BF0D17B681B6803F00803002B38
:1018300036D07B685B69002B16D0154B01221A60ED
:10184000FFF75AF9386108E0FFF756F902463B699D
:10185000D31A022B01D9032373E10B4B5B6F03F007
:101860000203002BF0D01BE0094B00221A60FFF7A7
:1018700043F938610EE0FFF73FF902463B69D31A9E
:10188000022B07D903235CE10038024000004742E5
:10189000800E47428A4B5B6F03F00203002BEAD1B4
:1018A0007B681B6803F00403002B00F09780002383
:1018B000FB75834B1B6C03F08053002B0FD100236F
:1018C000BB607F4A7E4B1B6C43F0805313647C4BA0
:1018D0001B6C03F08053BB60BB680123FB75794B25
:1018E0001B6803F48073002B18D1764A754B1B6874
:1018F00043F480731360FFF7FFF8386108E0FFF7E7
:10190000FBF802463B69D31A022B01D9032318E1E5
:101910006C4B1B6803F48073002BF0D07B689B68D2
:10192000012B06D1664A664B1B6F43F00103136718
:101930001CE07B689B68052B0CD1614A604B1B6FD8
:1019400043F0040313675E4A5D4B1B6F43F00103D2
:1019500013670BE05A4A5A4B1B6F23F001031367BE
:10196000574A574B1B6F23F0040313677B689B6830
:10197000002B15D0FFF7C0F838610AE0FFF7BCF87C
:1019800002463B69D31A41F28832934201D90323BC
:10199000D7E04B4B1B6F03F00203002BEED014E09B
:1019A000FFF7AAF838610AE0FFF7A6F802463B699C
:1019B000D31A41F28832934201D90323C1E0404B4C
:1019C0001B6F03F00203002BEED1FB7D012B05D131
:1019D0003B4A3B4B1B6C23F0805313647B689B6931
:1019E000002B00F0AD80364B9B6803F00C03082BF6
:1019F00060D07B689B69022B45D1334B00221A6073
:101A0000FFF77AF8386108E0FFF776F802463B699D
:101A1000D31A022B01D9032393E0294B1B6803F04F
:101A20000073002BF0D126497B68DA697B681B6A5A
:101A30001A437B685B6A9B011A437B689B6A5B085D
:101A4000013B1B041A437B68DB6A1B061A437B6855
:101A50001B6B1B0713434B601B4B01221A60FFF7E4
:101A60004BF8386108E0FFF747F802463B69D31AA4
:101A7000022B01D9032364E0114B1B6803F00073B0
:101A8000002BF0D05CE0104B00221A60FFF734F816
:101A9000386108E0FFF730F802463B69D31A022BA1
:101AA00001D903234DE0064B1B6803F00073002BA4
:101AB000F0D145E07B689B69012B07D1012340E011
:101AC0000038024000700040600047421F4B5B68D6
:101AD000FB607B689B69012B30D0FB6803F48002BC
:101AE0007B68DB699A4229D1FB6803F03F027B687F
:101AF0001B6A9A4222D1FA6847F6C07313407A688B
:101B0000526A9201934219D1FB6803F440327B6818
:101B10009B6A5B08013B1B049A420FD1FB6803F0F0
:101B200070627B68DB6A1B069A4207D1FB6803F090
:101B3000E0427B681B6B1B079A4201D0012300E047
:101B4000002318461837BD4680BD00BF003802404C
:101B500080B485B000AF78607B6893F83D30DBB22D
:101B6000012B01D0012346E07B68022283F83D204F
:101B70007B681B68234A934222D07B681B68B3F1C1
:101B8000804F1DD07B681B681F4A934218D07B682A
:101B90001B681E4A934213D07B681B681C4A934201
:101BA0000ED07B681B681B4A934209D07B681B6878
:101BB000194A934204D07B681B68184A934211D19A
:101BC0007B681B689B6803F00703FB60FB68062BC0
:101BD00010D07B681B687A681268126842F00102B4
:101BE0001A6007E07B681B687A681268126842F026
:101BF00001021A60002318461437BD465DF8047BC5
:101C0000704700BF00000140000400400008004091
:101C1000000C00400004014000400140001800405A
:101C200080B582B000AF78607B68002B01D10123C2
:101C30003FE07B6893F83D30DBB2002B06D17B6838
:101C4000002283F83C207868FEF740FE7B6824225F
:101C500083F83D207B681B687A681268D26822F49A
:101C60000052DA60786800F027F97B681B687A68B0
:101C70001268126922F490421A617B681B687A68C4
:101C80001268526922F02A025A617B681B687A68DE
:101C90001268D26842F40052DA607B6800221A644B
:101CA0007B68202283F83D207B68202283F83E2039
:101CB000002318460837BD4680BD80B58AB002AF04
:101CC000F860B9603B601346FB8000237B61FB68D2
:101CD00093F83D30DBB2202B7BD1BB68002B02D0C8
:101CE000FB88002B01D1012374E0FB6893F83C30A2
:101CF000012B01D102236DE0FB68012283F83C2017
:101D0000FB6800221A64FB68212283F83D20FEF75D
:101D1000F3FE7861FB68FA889A84FB68FA88DA84B3
:101D2000FB689B68B3F5805F08D1FB681B69002BDB
:101D300004D10023FB61BB68BB6103E0BB68FB61AE
:101D40000023BB61FB68002283F83C2029E03B684C
:101D500000937B6900228021F86800F03FF8034679
:101D6000002B01D0032335E0FB69002B0AD1FB686F
:101D70001B68BA691288C2F308025A60BB69023351
:101D8000BB6107E0FB681B68FA6912785A60FB695F
:101D90000133FB61FB68DB8C9BB2013B9AB2FB68B1
:101DA000DA84FB68DB8C9BB2002BD0D13B680093BC
:101DB0007B6900224021F86800F010F80346002BF0
:101DC00001D0032306E0FB68202283F83D20002396
:101DD00000E0022318462037BD4680BD80B590B094
:101DE00000AFF860B9603B601346FB7150E0BB6C1C
:101DF000B3F1FF3F4CD0BB6C002B07D0FEF77CFE4D
:101E000002463B68D21ABB6C9A4241D9FB681B68F8
:101E10000C33BB62BB6A53E8003F7B627B6A23F4EE
:101E2000D073FB63FB681B680C33FA6B7A633B630C
:101E3000396B7A6B41E80023FB62FB6A002BE5D12A
:101E4000FB681B6814337B617B6953E8003F3B618F
:101E50003B6923F00103BB63FB681B681433BA6B57
:101E60003A62FB61F9693A6A41E80023BB61BB69E8
:101E7000002BE5D1FB68202283F83D20FB6820225F
:101E800083F83E20FB68002283F83C2003230FE008
:101E9000FB681B681A68BB681A40BB689A420CBF93
:101EA00001230023DBB21A46FB799A429FD000231C
:101EB00018464037BD4680BD2DE9F04F91B000AFC8
:101EC00078637B6B19687B6B1B681B6923F440523A
:101ED0007B6BDB6813430B617B6B9A687B6B1B69C5
:101EE0001A437B6B5B691A437B6BDB691343BB63F0
:101EF0007B6B19687B6B1B68DB6823F4164222F04E
:101F00000C02BB6B1343CB607B6B19687B6B1B684C
:101F10005B6923F440727B6B9B6913434B617B6B62
:101F20001A68BA4B9A4204D07B6B1A68B84B9A4233
:101F300003D1FFF7A5F9F86302E0FFF78DF9F86325
:101F40007B6BDB69B3F5004F40F0A7807B6B1A68B1
:101F5000BA62FB6B19464FF000020B461446DB18C1
:101F600044EB04045B1844EB0204E00078617869F8
:101F700040EA53707861DB003B61D7E904345D18B7
:101F800044EB0206284631467B6B5B684FF0000449
:101F9000DB1844EB04041A462346FEF789F903468E
:101FA0000C461A469B4BA3FB02235B091E01FB6BED
:101FB00019464FF000020B461446DB1844EB0404AC
:101FC0005B1844EB02044FEAC40B4BEA537B4FEA25
:101FD000C30A53465C4613EB010A44EB020B50461E
:101FE00059467B6B5B684FF00004DB1844EB04043C
:101FF0001A462346FEF75CF903460C461A46854B03
:10200000A3FB02135B09642101FB03F3D31ADB007A
:102010003233804AA2FB03235B095B0003F4F873AD
:102020001E44FB6B19464FF000020B461446DB18AA
:1020300044EB04045B1844EB02044FEAC40949EA88
:1020400053794FEAC30843464C4613EB010844EB6F
:102050000209404649467B6B5B684FF00004DB1881
:1020600044EB04041A462346FEF722F903460C46C5
:102070001A46684BA3FB02135B09642101FB03F3BF
:10208000D31ADB003233634AA2FB03235B0903F05C
:1020900007033344BA6A9360B3E07B6B1B683B6110
:1020A000FB6B19464FF000020B461446DB1844EB5D
:1020B00004045B1844EB0204E60046EA5376DD00B4
:1020C0002B4634465D1844EB0206284631467B6BAE
:1020D0005B684FF00004A500FD62FD6A45EA937558
:1020E000FD629C00BC62D7E90A23FEF7E1F80346D3
:1020F0000C461A46474BA3FB02135B091D01FB6B01
:1021000019464FF000020B461446DB1844EB04045A
:102110005B1844EB0204E000F860F86840EA537092
:10212000F860D800B860D7E9023413EB010844EB3B
:102130000209404649467B6B5B684FF00004A600ED
:102140007E627E6A46EA93767E629C003C62D7E9B4
:102150000823FEF7ADF803460C461A462D4BA3FBA9
:1021600002135B09642101FB03F3D31A1B01323311
:10217000284AA2FB03135B0903F0F0031D44FB6B29
:1021800019464FF000020B461446DB1844EB0404DA
:102190005B1844EB0204E0007860786840EA537012
:1021A0007860D800386097E8180013EB010844EB1A
:1021B0000209404649467B6B5B684FF00004A6006D
:1021C000FE61FE6946EA9376FE619C00BC61D7E938
:1021D0000623FEF76DF803460C461A460D4BA3FB8B
:1021E00002135B09642101FB03F3D31A1B01323391
:1021F000084AA2FB03135B0903F00F032B443A695F
:10220000936000BF4437BD46BDE8F08F0010014029
:10221000001401401F85EB51DFF834D00D480E4902
:102220000E4A002302E0D458C4500433C4188C4230
:10223000F9D30B4A0B4C002301E013600432A24295
:10224000FBD3FEF7E1FB00F017F8FEF7B9F9704792
:10225000000002200000002070000020982B0008E1
:10226000700000202C010020FEE70000014B1868E0
:10227000704700BF0C00002070B50D4E0D4CA41B24
:10228000A4100025A54209D10B4E0C4C00F03EFCD9
:10229000A41BA4100025A54205D170BD56F8253019
:1022A00098470135EEE756F8253098470135F2E7B3
:1022B000902B0008902B0008902B0008942B00080E
:1022C00002440346934200D1704703F8011BF9E72B
:1022D0000EB400B59CB04FF402711DABADF81410F4
:1022E000029006906FF000410A48049107914FF662
:1022F000FF7153F8042BADF816100068019302A982
:1023000000F066F8029B00221A701CB05DF804EB26
:1023100003B070470C0000202DE9F0478E689E4204
:1023200082460C469146984635D88A8912F4906FB9
:1023300031D0256809696F1A6569022305EB4505E7
:1023400095FBF3F508F101033B449D4238BF1D4660
:10235000530531D5294600F039FB064650B90C2308
:10236000CAF80030A38943F04003A3814FF0FF3047
:10237000BDE8F0873A46216900F0B4FAA38923F456
:10238000906343F08003A381266165613E44ED1BA9
:102390002660A5604646464528BF46463246494621
:1023A000206800F0AAFAA3689B1BA36023681E4460
:1023B00026600020BDE8F0872A4600F065FB06464F
:1023C0000028E1D12169504600F0B2FAC7E70000C9
:1023D0002DE9F04F9DB0804603938B891C060D4676
:1023E00016460FD50B696BB9402100F0EFFA286053
:1023F000286128B90C23C8F800304FF0FF30C5E041
:1024000040236B610023099320238DF8293030236A
:102410008DF82A304FF0010B37463C4614F8013B4B
:10242000002B3CD1B7EB060A0BD053463246294667
:102430004046FFF771FF013000F0A380099B534431
:1024400009933B78002B00F09C8000234FF0FF3273
:1024500004930793059206938DF853301A9305223F
:1024600021785048FDF7D4FE671C049BD8B9D906E3
:1024700044BF20228DF853201A0744BF2B228DF829
:10248000532022782A2A16D0079A00210A202746AC
:1024900001343B78303B092B51D9C9B111E0252BD0
:1024A000C0D02746B9E73F4A801A0BFA00F018431C
:1024B00004903C46D3E7039A111D12680391002A49
:1024C00001DB079204E0524243F0020307920493B7
:1024D0003B782E2B0ED17B782A2B07F1010132D1CC
:1024E000039B1A1D1B680392002BB8BF4FF0FF33EC
:1024F000023705932C4C397803222046FDF788FEDD
:1025000038B14023001B03FA00F0049B03430493FB
:102510000137397825488DF8281006227E1CFDF7F2
:1025200077FE002835D0224BFBB9039B073323F0FD
:10253000070308330393099B4B4409936CE700FBA3
:1025400002320121A3E70023059318460A240F460F
:1025500001313A78303A092A03D9002BCAD00590C4
:10256000C8E704FB00200123F1E703AB00932A46F0
:10257000104B04A94046AFF30080B0F1FF3F814605
:10258000D9D1AB895B063FF538AF09981DB0BDE8DE
:10259000F08F03AB00932A46064B04A9404600F097
:1025A00081F8EAE7542B00085A2B00085E2B00083C
:1025B00000000000192300082DE9F04791461F464E
:1025C0008A680B69DDF820809342B8BF1346C9F8CA
:1025D000003091F8432006460C4612B10133C9F889
:1025E00000302368990642BFD9F800300233C9F899
:1025F0000030256815F0060507D104F1190AE368D3
:10260000D9F800209B1A9D4229DB94F843302268B8
:10261000003318BF012392062ED404F14302394639
:102620003046C047013021D02368E568D9F8002042
:1026300003F00603042B08BFAD1AA36822690CBF80
:1026400025EAE57500259342C4BF9B1AED184FF0AB
:1026500000091A344D451BD10020BDE8F087012345
:10266000524639463046C047013003D14FF0FF3063
:10267000BDE8F0870135C2E7E1185A1C302081F827
:102680004300224494F8451082F843100233C4E713
:102690000123224639463046C0470130E6D009F1D1
:1026A0000109D7E72DE9F04317460A7E85B06E2A67
:1026B000984606460C460C9B01F1430E00F0BC8088
:1026C0001AD8632A2ED00AD8002A00F0C880582AC7
:1026D00000F08A8004F1420584F842202AE0642A4E
:1026E00001D0692AF6D121681A6811F0800F23D031
:1026F000111D1960136827E0732A00F0B48008D810
:102700006F2A2AD0702AE5D10A6842F020020A60B6
:1027100003E0752A21D0782ADCD1782284F845207C
:102720006E4964E01A6801F14205111D19601368D1
:1027300084F842300123A3E011F0400F02F10401BC
:102740001960D7D0B2F90030002B03DA2D225B429A
:1027500084F8432062490A2217E02068196810F0C3
:10276000800F03D0081D18600B6806E010F0400FC2
:1027700001F104001860F7D00B8859496F2A14BF83
:102780000A220822002084F843006568A560002D15
:10279000C0F29C80206820F004002060002B3FD114
:1027A000002D40F095807546082A0BD12368DA0782
:1027B00008D5236962689A42DEBF302305F8013CE0
:1027C00005F1FF35AEEB05032361CDF800803B46F4
:1027D00003AA21463046FFF7EFFE013055D14FF0F6
:1027E000FF3005B0BDE8F08381F845203C49226800
:1027F000186812F0800F00F104051D6001D0036815
:1028000002E05506FBD50388D00744BF42F0200202
:1028100022601BB9226822F0200222601022B1E758
:102820007546B3FBF2F002FB1033CB5C05F8013DBB
:1028300003460028F5D1B7E708681A68496910F01F
:10284000800F04D0101D18601368196007E010F0A5
:10285000400F02F1040018601368F6D019800023BD
:1028600023617546B1E71A68111D19601568626821
:1028700000212846FDF7CCFC08B1401B606063686E
:102880002361002384F843309FE723692A463946B1
:102890003046C0470130A2D023689B0707D50025EA
:1028A00004F11909E368039A9B1A9D4205DBE0686D
:1028B000039B9842B8BF184693E701234A4639461E
:1028C0003046C04701308AD00135EBE7002BA7D155
:1028D0000B7884F8423004F1420565E7762B000856
:1028E000652B000810B5431E0A44914200D110BD6B
:1028F00011F8014B03F8014FF7E7884210B501EBDF
:10290000020303D8421E99420CD110BD9842F9D25D
:102910008118D21AD34200D110BD13F8014D01F82D
:10292000014DF7E711F8014B02F8014FEBE700000A
:1029300038B50546002945D051F8043C0C1F002B42
:10294000B8BFE41800F0D6F81F4A1368104633B930
:10295000636014602846BDE8384000F0CCB8A3425C
:102960000CD921686218934204BF1A685B686360DF
:1029700004BF521822600460ECE713465A680AB19B
:10298000A242FAD919685818A0420BD12068014414
:10299000581882421960DDD1106852685A600144AB
:1029A0001960D7E702D90C232B60D3E720682118E0
:1029B0008A4204BF11685268626004BF091821602E
:1029C0005C60C7E738BD00BF9000002070B5CD1C2B
:1029D00025F0030508350C2D38BF0C25002D0646C3
:1029E00001DBA94203D90C233360002070BD00F045
:1029F00081F8234A1468214691B9224C23681BB9F7
:102A0000304600F067F820602946304600F062F852
:102A1000431C26D10C233360304600F06CF8E4E709
:102A20000B685B1B1AD40B2B0FD90B60CD50CC1845
:102A3000304600F060F804F10B00231D20F0070081
:102A4000C31A1BD05A42E25070BD8C420DBF63685E
:102A50004B686360136018BF0C46E9E70C46496891
:102A6000CAE7C41C24F00304A04205D0211A304652
:102A700000F030F80130CDD02560D9E770BD00BF3F
:102A80009000002094000020F8B5074614460E463A
:102A900021B91146BDE8F840FFF798BF22B9FFF70A
:102AA00047FF25462846F8BD00F026F884420FD996
:102AB00021463846FFF78AFF05460028F2D0314606
:102AC0002246FFF70FFF31463846FFF731FFE9E7AF
:102AD0003546E7E738B5064C00230546084623602F
:102AE000FDF766FF431C02D1236803B12B6038BD9C
:102AF000280100207047704751F8040C0028A0F10D
:102B00000400BCBF0B58C01870470000F8B500BFE8
:102B1000F8BC08BC9E467047F8B500BFF8BC08BCBE
:042B20009E46704716
:102B240054696D657220546573740A0D00000000C9
:102B340025752075730D0A000000000000000000D8
:102B4400010203040607080900000000010203044F
:102B5400232D302B2000686C4C0065666745464782
:102B64000030313233343536373839414243444505
:102B74004600303132333435363738396162636474
:042B84006566000082
:082B880058D7FF7F0100000097
:042B9000F501000843
:042B9400D101000863
:102B98000024F400100000000100000010000020D4
:102BA800000000000000000000000000000000001D
:102BB800000000000000000000000000000000000D
:102BC80000000000000000000000000000000000FD
:102BD80000000000000000000000000000000000ED
:102BE80000000000000000000000000000000000DD
:102BF80000000000000000000000000000000000CD
:0400000508002219B4
:00000001FF
